{
  "_format": "hh-sol-artifact-1",
  "contractName": "Pyramid",
  "sourceName": "packages/contracts/src/Pyramid.sol",
  "abi": [
    {
      "inputs": [],
      "stateMutability": "nonpayable",
      "type": "constructor"
    },
    {
      "inputs": [
        {
          "internalType": "uint256",
          "name": "amount",
          "type": "uint256"
        }
      ],
      "name": "contribute",
      "outputs": [],
      "stateMutability": "payable",
      "type": "function"
    },
    {
      "inputs": [
        {
          "internalType": "address",
          "name": "",
          "type": "address"
        }
      ],
      "name": "contribution_list",
      "outputs": [
        {
          "internalType": "uint16",
          "name": "layer",
          "type": "uint16"
        },
        {
          "internalType": "address",
          "name": "contributor",
          "type": "address"
        },
        {
          "internalType": "uint256",
          "name": "amount",
          "type": "uint256"
        }
      ],
      "stateMutability": "view",
      "type": "function"
    },
    {
      "inputs": [],
      "name": "current_layer",
      "outputs": [
        {
          "internalType": "uint16",
          "name": "",
          "type": "uint16"
        }
      ],
      "stateMutability": "view",
      "type": "function"
    },
    {
      "inputs": [],
      "name": "current_layer_total",
      "outputs": [
        {
          "internalType": "uint256",
          "name": "",
          "type": "uint256"
        }
      ],
      "stateMutability": "view",
      "type": "function"
    },
    {
      "inputs": [],
      "name": "earned",
      "outputs": [
        {
          "internalType": "uint256",
          "name": "",
          "type": "uint256"
        }
      ],
      "stateMutability": "view",
      "type": "function"
    },
    {
      "inputs": [],
      "name": "getBalance",
      "outputs": [
        {
          "internalType": "uint256",
          "name": "",
          "type": "uint256"
        }
      ],
      "stateMutability": "view",
      "type": "function"
    },
    {
      "inputs": [
        {
          "internalType": "uint16",
          "name": "",
          "type": "uint16"
        },
        {
          "internalType": "uint256",
          "name": "",
          "type": "uint256"
        }
      ],
      "name": "layers",
      "outputs": [
        {
          "internalType": "uint16",
          "name": "layer",
          "type": "uint16"
        },
        {
          "internalType": "address",
          "name": "contributor",
          "type": "address"
        },
        {
          "internalType": "uint256",
          "name": "amount",
          "type": "uint256"
        }
      ],
      "stateMutability": "view",
      "type": "function"
    },
    {
      "inputs": [],
      "name": "total",
      "outputs": [
        {
          "internalType": "uint256",
          "name": "",
          "type": "uint256"
        }
      ],
      "stateMutability": "view",
      "type": "function"
    },
    {
      "inputs": [],
      "name": "viewProgress",
      "outputs": [
        {
          "internalType": "uint256",
          "name": "",
          "type": "uint256"
        }
      ],
      "stateMutability": "view",
      "type": "function"
    }
  ],
  "bytecode": "0x608060405234801561001057600080fd5b5060006001905060005b60ff81101561005f576004829080600181540180825580915050600190039060005260206000200160009091909190915055600282029150808060010191505061001a565b5050610b25806100706000396000f3fe6080604052600436106100865760003560e01c80632ddbd13a116100595780632ddbd13a1461019557806353ede71f146101c0578063c1cbbca7146101eb578063d6f1926214610219578063eb98b7b11461024457610086565b806312065fe01461008b5780631395a886146100b657806315ab8fe91461013b57806327bdc3fe1461016a575b600080fd5b34801561009757600080fd5b506100a06102d1565b6040518082815260200191505060405180910390f35b3480156100c257600080fd5b506100fd600480360360408110156100d957600080fd5b81019080803561ffff169060200190929190803590602001909291905050506102d9565b604051808461ffff1681526020018373ffffffffffffffffffffffffffffffffffffffff168152602001828152602001935050505060405180910390f35b34801561014757600080fd5b5061015061034b565b604051808261ffff16815260200191505060405180910390f35b34801561017657600080fd5b5061017f61035f565b6040518082815260200191505060405180910390f35b3480156101a157600080fd5b506101aa610406565b6040518082815260200191505060405180910390f35b3480156101cc57600080fd5b506101d561040c565b6040518082815260200191505060405180910390f35b6102176004803603602081101561020157600080fd5b8101908080359060200190929190505050610412565b005b34801561022557600080fd5b5061022e6109e1565b6040518082815260200191505060405180910390f35b34801561025057600080fd5b506102936004803603602081101561026757600080fd5b81019080803573ffffffffffffffffffffffffffffffffffffffff1690602001909291905050506109e7565b604051808461ffff1681526020018373ffffffffffffffffffffffffffffffffffffffff168152602001828152602001935050505060405180910390f35b600047905090565b600660205281600052604060002081815481106102f257fe5b9060005260206000209060020201600091509150508060000160009054906101000a900461ffff16908060000160029054906101000a900473ffffffffffffffffffffffffffffffffffffffff16908060010154905083565b600360009054906101000a900461ffff1681565b600080600560003373ffffffffffffffffffffffffffffffffffffffff1673ffffffffffffffffffffffffffffffffffffffff16815260200190815260200160002060000160009054906101000a900461ffff169050600360009054906101000a900461ffff1661ffff168161ffff1614156103fd5760025460048261ffff16815481106103e957fe5b906000526020600020015403915050610403565b60009150505b90565b60005481565b60025481565b34811461046a576040517f08c379a0000000000000000000000000000000000000000000000000000000008152600401808060200182810382526039815260200180610ab76039913960400191505060405180910390fd5b6000600560003373ffffffffffffffffffffffffffffffffffffffff1673ffffffffffffffffffffffffffffffffffffffff1681526020019081526020016000206001015414610505576040517f08c379a000000000000000000000000000000000000000000000000000000000815260040180806020018281038252603c815260200180610a7b603c913960400191505060405180910390fd5b806000808282540192505081905550806002600082825401925050819055505b6004600360009054906101000a900461ffff1661ffff168154811061054657fe5b90600052602060002001546002541061080c57606060066000600360009054906101000a900461ffff1661ffff1661ffff168152602001908152602001600020805480602002602001604051908101604052809291908181526020016000905b8282101561065857838290600052602060002090600202016040518060600160405290816000820160009054906101000a900461ffff1661ffff1661ffff1681526020016000820160029054906101000a900473ffffffffffffffffffffffffffffffffffffffff1673ffffffffffffffffffffffffffffffffffffffff1673ffffffffffffffffffffffffffffffffffffffff168152602001600182015481525050815260200190600101906105a6565b50505050905060005b815181101561079557610672610a3f565b82828151811061067e57fe5b602002602001015190506000816020015173ffffffffffffffffffffffffffffffffffffffff16600283604001510260405180600001905060006040518083038185875af1925050503d80600081146106f3576040519150601f19603f3d011682016040523d82523d6000602084013e6106f8565b606091505b505090508061076f576040517f08c379a000000000000000000000000000000000000000000000000000000000815260040180806020018281038252601b8152602001807f4661696c656420746f20706179206261636b20616464726573732e000000000081525060200191505060405180910390fd5b600282604001510260016000828254019250508190555050508080600101915050610661565b506004600360009054906101000a900461ffff1661ffff16815481106107b757fe5b90600052602060002001546002600082825403925050819055506003600081819054906101000a900461ffff168092919060010191906101000a81548161ffff021916908361ffff1602179055505050610525565b610814610a3f565b6040518060600160405280600360009054906101000a900461ffff1661ffff1681526020013373ffffffffffffffffffffffffffffffffffffffff16815260200183815250905080600560003373ffffffffffffffffffffffffffffffffffffffff1673ffffffffffffffffffffffffffffffffffffffff16815260200190815260200160002060008201518160000160006101000a81548161ffff021916908361ffff16021790555060208201518160000160026101000a81548173ffffffffffffffffffffffffffffffffffffffff021916908373ffffffffffffffffffffffffffffffffffffffff1602179055506040820151816001015590505060066000600360009054906101000a900461ffff1661ffff1661ffff16815260200190815260200160002081908060018154018082558091505060019003906000526020600020906002020160009091909190915060008201518160000160006101000a81548161ffff021916908361ffff16021790555060208201518160000160026101000a81548173ffffffffffffffffffffffffffffffffffffffff021916908373ffffffffffffffffffffffffffffffffffffffff1602179055506040820151816001015550505050565b60015481565b60056020528060005260406000206000915090508060000160009054906101000a900461ffff16908060000160029054906101000a900473ffffffffffffffffffffffffffffffffffffffff16908060010154905083565b6040518060600160405280600061ffff168152602001600073ffffffffffffffffffffffffffffffffffffffff16815260200160008152509056fe53656e6465722068617320616c7265616479206d616465206120636f6e747269627574696f6e2e204e6f206d6f72652063616e206265206d6164652e436f6e747269627574696f6e20616d6f756e7420646f6573206e6f74206d6174636820746865207472616e73616374696f6e2076616c75652ea26469706673582212208101daa12e643c1fe5bc70088ebea2094ffbfc2a74ed3ec382df88f30889db1f64736f6c63430007030033",
  "linkReferences": {},
  "deployedLinkReferences": {}
}